:020000042000DA
:1000000000200820A50100201B0100201D01002068
:100010001101002011010020110100201101002018
:100020001901002019010020190100201F010020E2
:1000300011010020190100202101002023010020CE
:1000400011010020110100201101002011010020E8
:1000500011010020110100201101002011010020D8
:1000600011010020110100201101002011010020C8
:1000700011010020110100201101002011010020B8
:1000800011010020110100201101002011010020A8
:100090001101002011010020110100201101002098
:1000A0001101002011010020110100201101002088
:1000B0001101002011010020110100201101002078
:1000C0001101002011010020110100201101002068
:1000D0001101002011010020110100201101002058
:1000E0001101002011010020110100201101002048
:1000F0001101002011010020110100201101002038
:100100001101002011010020110100201101002027
:10011000EFF30580103800BE00BE00BE00BE00BE7A
:1001200000BE00BE06005250ABB360539480002066
:1001300006005250861C0302A48000200600525084
:100140005422A29DB0800020F2EB88717C810020B7
:1001500094810020D001002090A31AE7D3DEFFFF96
:10016000420121100302000000000020FF030000F4
:1001700000000000793512AB20485FF44041016077
:1001800030EE10F704D440EC800740EC810740BF0C
:10019000002080F30A881A481A49086006C881F3CB
:1001A000088810474FF05040006810B14FF0000031
:1001B000F2E71549154A002000E001C19142FCD147
:1001C00013498847134988471349884700BEFDE70C
:1001D0009481002094810020988200200000082053
:1001E000000008200000082000100820001008204F
:1001F00000100820000000007047000088ED00E0BB
:100200000000002008ED00E098820020600B07202D
:10021000695E0020610E0020615E00202DE9F04142
:100220001F46044616460368EFF3108872B6D3E8FB
:10023000CF1F01220029FAD1C3E8412F0029F6D1AE
:10024000BFF35F8F45686B1C0CD000230268C2E8C7
:100250008F3F88F3108801F0F3F8A8420ED10020F8
:10026000BDE8F08101F0ECF8002322686060C2E88C
:100270008F3F88F310880120BDE8F08101F0E0F89D
:10028000804606E032463B46204601F039F9002818
:10029000E5D12568EFF3108172B6D5E8CF2F0123A1
:1002A000002AFAD1C5E8423F002AF6D1BFF35F8F9A
:1002B00063680133E6D100232268C4F80480C2E8F1
:1002C0008F3F81F310880120CAE700BF00B50268A4
:1002D000EFF3108172B6D2E8CFEF5FF0010CBEF100
:1002E000000FF8D1C2E84ECFBEF1000FF3D1BFF33B
:1002F0005F8F4FF0FF325DF804EB426001F0B6B85B
:10030000002108B5134B4FF4707299601248D96000
:10031000196159619961D961196259629962D96209
:10032000196359639963D963196459649964D964E9
:10033000196559659965D965196659669966D966C9
:10034000196759679967D96707F0B8FD034B044AE5
:100350001A6008BD0000105030A80020F8AB002043
:10036000800110502DE9F04F234B85B0D3F858A0F1
:10037000BAF1000F25D0002401254FF002081F4FCD
:1003800003E06D00DCB2202C1BD01AEA050F04F14B
:100390000103F6D0E6434FEA540906F0010618FBC4
:1003A000096B174B07EB4B1B9D6558462AEA050A5C
:1003B0006D0000F0FBFB38B90134E4B2BAF1000F74
:1003C000E1D105B0BDE8F08F4FF4E063ADF8043043
:1003D000002306EB490607EB4616B2788DF8093084
:1003E000F38A01A801218DF80820039300F0FEFB99
:1003F000584600F081FBDFE700001150F0A7002015
:100400000030115070B5B24B84B0D3F8985015F449
:10041000003674D0AF4BB04C996A94F83B30AF4A79
:10042000022B116000F0F980002694F87B30022B3B
:1004300000F0C88194F8BB30022B00F0B98194F829
:10044000FB30022B00F0AA8194F83B31022B00F024
:100450009A8194F87B31022B00F08A8194F8BB31A9
:10046000022B00F07A8194F8FB31022B00F06A81B4
:1004700094F83B32022B00F0598194F87B32022B26
:1004800000F0488194F8BB32022B00F0378194F8D9
:10049000FB32022B00F0108194F83B33022B00F06A
:1004A000FF8094F87B33022B00F0EE8094F8BB338E
:1004B000022B00F0D58094F8FB33022B00F0BF80B4
:1004C0003EB9874B1B7823B94FF40032854BC3F8F4
:1004D00090204FF440727E4B01219B6C01A8C3F326
:1004E0000A030293ADF8042000F080FBE9064FF404
:1004F00000367D4C07D5FFF735FF264603E0E906B9
:100500004FF01004F7D4EA0332D5734C46F480362A
:10051000A37E9BB10221754B6D4A1966536E9B07F2
:10052000FCD54FF4405200216B4800F0EBFA6A48CA
:1005300000F0E2FA02226B4B5A661A66012394F825
:100540003A20E370FAB901234FF4C061684A84F895
:100550002330ADF8041092E8030004AA02E9030076
:10056000194601A800F042FB4FF400325D4B1A65BA
:10057000E9041DD46A0432D42B043FD4AE4240F0C7
:100580009A8104B070BD594A1366A2F50052536EA9
:10059000D807FCD54FF440520021564800F0B2FA7B
:1005A000544800F0A9FA01224E4B5A661A66CAE76F
:1005B0000024474B46F480561C60FFF7A1FE4FF421
:1005C0008073012101A8ADF804308DF8084000F0D7
:1005D0000DFB4FF40022434B1A656A04CCD54FF44F
:1005E0008063012101A8ADF8043000F0FFFA102269
:1005F0003C4B46F480461A652B04BFD54FF4A063EC
:10060000012101A8ADF8043000F0F0FA4FF40062C7
:10061000344B46F400461A65B0E794F83A60002E71
:100620003FF403AF94F83C30002B3FF4FEAE0023C0
:1006300004F1200084F83C3000F086FAF5E694F8E6
:10064000FA33002B3FF43CAF94F8FC33002B3FF41B
:1006500040AF0023284884F8FC3300F075FA38E7EF
:1006600094F8BA33002B3FF426AF94F8BC33002B38
:1006700040F0B28094F8FB33022B7FF42AAF94F859
:10068000FA33002BE0D124E794F87A33002B3FF4BF
:100690000DAF94F87C23002A40F005811E4605E743
:1006A00094F83A33002B3FF4FCAE94F83C23002A34
:1006B00040F0F1801E46F4E694F8FA32002B3FF445
:1006C000EBAE94F8FC22002A40F0DD801E46E3E603
:1006D0000000115000000B40F0A70020BCA7002034
:1006E0005A0B07200030115010000200002011505A
:1006F0000000105010A80020D0AB002094F8BA32AF
:10070000002B3FF4C4AE94F8BC22002A40F0B38022
:100710001E46BCE694F87A32002B3FF4B3AE94F850
:100720007C22002A40F09F801E46ABE694F83A32C5
:10073000002B3FF4A2AE94F83C22002A40F08B80BC
:100740001E469AE694F8FA31002B3FF491AE94F8E5
:10075000FC21002A77D11E468AE694F8BA31002B94
:100760003FF481AE94F8BC21002A64D11E467AE69B
:1007700094F87A31002B3FF471AE94F87C21002A72
:1007800051D11E466AE694F83A31002B3FF461AE2F
:1007900094F83C21002A3ED11E465AE694F8FA30DD
:1007A000002B3FF451AE94F8FC2062BB1E464BE692
:1007B00094F8BA30002B3FF442AE94F8BC20D2B982
:1007C0001E463CE694F87A30002B3FF433AE94F8A2
:1007D0007C2042B91E462DE60023394884F8BC33FC
:1007E00000F0B2F946E70022364884F87C201E4625
:1007F00000F0AAF91EE60022334884F8BC201E4609
:1008000000F0A2F91BE60022304884F8FC201E46C6
:1008100000F09AF918E600222D4884F83C211E4683
:1008200000F092F915E600222A4884F87C211E4641
:1008300000F08AF912E60022274884F8BC211E46FF
:1008400000F082F90FE60022244884F8FC211E46BD
:1008500000F07AF90CE60022214884F83C221E467A
:1008600000F072F909E600221E4884F87C221E4638
:1008700000F06AF906E600221B4884F8BC221E46F6
:1008800000F062F903E60022184884F8FC221E46B4
:1008900000F05AF900E60022154884F83C231E4671
:1008A00000F052F9FDE50022124884F87C231E4630
:1008B00000F04AF9FAE5104886EA050104F030F93B
:1008C00090AB002050A8002090A80020D0A80020C5
:1008D00010A9002050A9002090A90020D0A9002034
:1008E00010AA002050AA002090AA0020D0AA002020
:1008F00010AB002050AB0020D8800020828A2DE968
:10090000F043048BC378944228BF1446121B92B262
:100910008282002B46D044F4105683F00103C3704A
:1009200043783546B3BBC56804F1FF3905EB811840
:1009300005695CB36A1CA8EB0207022F35D9B9F12F
:10094000070F32D9AE46C446221F920801325EF824
:10095000047B01339A424CF8047BF8D8B4EB820F45
:10096000A9EB820305EB820C08EB82070CD015F88B
:10097000225008F822503BB19CF80120012B7A70DC
:1009800002D09CF80230BB700569828A2C44046155
:1009900046F400450AB945F4804501B12D042846C6
:1009A000BDE8F08344F48066B7E708F1FF382544DA
:1009B00000E0013212F8013CAA4208F8013FF8D1E8
:1009C000E2E700BF83681B6801B11B0C4278C3F3E8
:1009D0000903002A3FD0F0B5D0E903248D015F1E42
:1009E00002EB81115BB301352A44A21A022A3CD9D9
:1009F000072F3AD90D46A6460022A3F1040C4FEA70
:100A00009C0C0CF1010C55F8046B013294454EF826
:100A1000046BF8D8B3EB8C0FA7EB8C0701EB8C05BC
:100A200004EB8C020AD011F82C1004F82C102FB112
:100A30006978012F517001D0A97891700469C28A38
:100A40001C441A44C282028B04619A4284BF002271
:100A500082821846F0BDC28A1A44C282028B9A4230
:100A600084BF0022828218467047013CCD1811F8DD
:100A7000012BA94204F8012FF9D1DFE710B5044694
:100A8000836800211B68FFF79DFF63681B685B009C
:100A900002D5238B834200D010BD2046BDE8104014
:100AA0000121FFF78FBF00BF084B1B6C13F002033F
:100AB00002D18278D20901D100207047C07EA0F116
:100AC0000200B0FA80F04009704700BF00001150EA
:100AD00008B5FFF7E9FF50B1054A064B906A1B685D
:100AE000A0F54870C01AC6288CBF0020012008BDA0
:100AF00000000B40BCA700200023C0E9043383762C
:100B0000704700BF10B5836809B11C68214082B1ED
:100B1000114352050DD51A6854050CD4084A21F426
:100B200080641C60126C920703D40C23033BFDD23B
:100B30008368196010BD8178024803F0F1FF00BF9F
:100B400000001150EC80002030B54368002183B0D4
:100B500004461D68FFF7D2FE134B40F480521B6C15
:100B600013F0020FA3780ED05B060ED025F0A0453F
:100B700045F000550021204663681D6003B0BDE8C4
:100B80003040FFF7BFBFDB09F0D0A38A002BEDD0C8
:100B9000012120460192FFF7B1FE019A25F0005590
:100BA00045F0A0450243E5E70000115038B5857EC9
:100BB0000446A5B1FFF762FFA38A0BB9284638BDEA
:100BC0002046FFF785FF054620B101230025237746
:100BD000284638BD2046FFF7B7FF284638BD817844
:100BE000014803F09DFF00BF0C8100202DE9F04378
:100BF000044640780D46023885B0042815D8DFE851
:100C000010F005004F00CE00D800450000217A4BBF
:100C10001A786FF300021A701A786FF341021A7093
:100C200059701A7861F382021A70744B18688DB982
:100C30002B464FF0FF32214601F008F8003818BF6C
:100C40000120C8B12A466178207805F02DFC05B056
:100C5000BDE8F0830023214601AA019301F0BEF80C
:100C6000019B2BB14FF0E0234FF08052C3F8042DCD
:100C7000003818BF0120E4E74FF0E023D3F8F03D3F
:100C8000DB07E4D500BE05B0BDE8F0835C4A13780D
:100C90000133DBB21370594B1868002DDAD1C7E766
:100CA0000026584FB4463A78DFF85C81DFF85C9153
:100CB00009E0D9F8003013EB4C1C0AD101365FFA79
:100CC00086FC944512D86245F3D8ACEB020C08EBD5
:100CD0004C1CDCF81C30002BF0D061682078984761
:100CE00001363A785FFA86FC9445ECD9424E337867
:100CF00058072AD500230521327840486FF3820235
:100D0000327022780193CDE902338DF80510006826
:100D10008DF8042001A9002D5CD06A46009301F0F3
:100D20005DF8009B2BB14FF0E0234FF08052C3F8E9
:100D3000042D003818BF0120002854D14FF0E023C3
:100D4000D3F8F03DD90700D500BEF378DA077FF578
:100D50007EAF002303226068217802902748019328
:100D600000688DF804108DF8052003935DB36A4682
:100D700001A9009301F032F8009B2BB14FF0E02362
:100D80004FF08052C3F8042D00283FF475AF2A4677
:100D90009DF805109DF8040005F086FB57E7164BFB
:100DA0001A78D7077FF553AF1A7842F004021A7009
:100DB0003BE7114B1A78D6077FF549AF1A786FF3E6
:100DC00082021A7031E72B464FF0FF3201A900F082
:100DD0003DFFD9E72B464FF0FF3200F037FF0038D8
:100DE00018BF0120A8E72A469DF805109DF80400C9
:100DF00005F05AFBA9E700BF208500207885002078
:100E00005B0B0720590B07204081002060840020E5
:100E100008B5054B93F8903B43F001039847BDE8B4
:100E20000840002002F074BFF0FE022030B51F25FC
:100E3000084C83B000234FF47A420749019400958F
:100E4000064802F055FD0221206803B0BDE830409D
:100E500001F086BD88A70020BC7F0020110E002075
:100E600010B5ADF58B2DADF5647D154C00F044F853
:100E7000684600F001F969462046124A06F0A8FFCC
:100E800021460A22684600F0CFF80F4BEE469C46FA
:100E900004F5A044C4F88C3BBEE80F00ACE80F009A
:100EA000BEE80F00ACE80F009EE807008CE80700E2
:100EB00002F09CFE00200DF58B2D0DF5647D10BD1C
:100EC000F0AE0220905B0400C0A700200022034B7C
:100ED0000349044899605A6200F0CEB8C0A70020C8
:100EE00000000840F0AE022008B500214FF0FF30AE
:100EF00005F070FBF9E700BF002130B51F250A4C53
:100F000083B0084606F0F4F900234FF4C0620749A5
:100F100001940095064802F0EBFC0121206803B023
:100F2000BDE8304001F01CBDD8AE0220C87F0020D3
:100F3000E90E0020012A25D970B50B780D4603BBB8
:100F4000334E144633786BB94B78013B0E2B18D8CF
:100F5000DFE803F048423C17171717171717171742
:100F6000173119002B4D2B681C44B4F5805F3DD818
:100F700029480068184406F02BFFB4F5805F2C6008
:100F80003ED070BD7047254800F060F80122002374
:100F90003270214A1F4E022C10603360F1D0023CA7
:100FA000B4F5805FA8BF4FF48054A91C224606F018
:100FB0000FFF346070BD45F690308A78012100EB58
:100FC0000230174A002331701044E2E7154BBDE8A8
:100FD0007040186801F0CABD124BBDE87040186837
:100FE00002F034BFBDE87040FFF720BF0A4A106826
:100FF000C3F58052184406F0EBFE4FF480532B608B
:10100000002306483370BDE8704000F021B800BFEF
:10101000580B07205C84002058840020C0A70020C3
:10102000F0AE022088A7002038B504460023064D04
:10103000636214211046A5601A4600F0C7FD0346FE
:101040002046636038BD00BF00000840006A70475A
:10105000002100B583B0006801AA019103F01AFADB
:10106000019B2BB14FF0E0234FF08052C3F8042DC9
:1010700003B05DF804FB00BF70B5002400F5A04686
:1010800005464FF4A062214686F8804106F5C270FD
:1010900006F014FF4FF4A062214606F2846006F0C9
:1010A0000DFF0120C6F8884B00F060FE03464FF4A8
:1010B000A042C6F8843BFF21284606F0FFFE2246E8
:1010C00005F5A1437F3303F8012F0132402AFAD1FD
:1010D00005F5A2400021403006F0F0FE4FF480728A
:1010E000FF21304606F0EAFE284670BD00487047F2
:1010F000F07F0020004870479481002038B518B375
:10110000431E022B1ED8164B53F82040204606F0F3
:1011100027FF2028014628BF2021E8B1114D621E7B
:1011200028461346023312F801CF1B1B994220F8C0
:1011300002CFF6D84B1C5B0043F440739BB20948C6
:101140002B8038BD002038BD054B064D1A684FF482
:10115000417312886A80F2E740F20233014DEEE7F4
:10116000B4810020B88400200A4B93F90020002AA3
:101170000FDB4FF050410123D1F888019340184212
:1011800007D04FF0E0224FF08050C1F88C31C2F808
:10119000040D7047C4810020002300B583B0019383
:1011A00000F062FA019B002BFCD003B05DF804FB59
:1011B00010B502F097FA044601F0E2FD28B14FF0B5
:1011C000E0234FF08052C3F8042D2046BDE81040C4
:1011D00003F0FAB810B504224FF0E0240023226196
:1011E0000520A36103F096FC0722044BA3FB00300B
:1011F0008309013B6361226110BD00BFD34D6210C2
:101200004FF0E0234FF07F42002130B585B00391CD
:10121000C3F81C2DD3F81C3D1B0E8DF807309DF82C
:1012200007309DF807301A060CD5039B0133039352
:101230009DF807305B00DBB28DF807309DF8073072
:101240001B06F2D4039B082B40D0039BC3F107037A
:101250001B0203F4E0634FF050412548254A036028
:1012600012780B689A4233D04FF0E02300244FF0FD
:101270005045D3F8202D204942F47F02C3F8202D99
:101280000E20C3F81C4D04F0C7FA1C490B2004F0D3
:10129000C3FA2A681A4BFF2143F822401A2003F0B0
:1012A00035FE1A20174903F00DFD01211A2003F025
:1012B000E3FC00F0D1F9286801F072FD029400F01F
:1012C000D3F9029B002BFCD005B030BD0023C2E750
:1012D000FFF780FF4FF0E022D2F8203D0A4943F0AB
:1012E0007F43C2F8203D0F2004F096FABCE700BF10
:1012F000D4AE0220C58100209116002029170020BD
:10130000CCAE022069110020B111002008B500F018
:10131000ABF9BDE80840FFF773BF00BF4FF0E02313
:101320004FF08052C3F8042DBFF34F8FBFF36F8F80
:10133000704700BF836913F8023C662B00D07047EA
:101340004FF0E023D3F8882D42F47002C3F8882DC3
:10135000D3F8342F42F04042C3F8342F00F060B984
:101360002DE9F0474FF080744FF010374FF00935FA
:1013700040F8044C4FF0073440E90B57164D40F845
:10138000344C40E903524FF0113C4FF006344FF01B
:10139000053240E909C340E90F2403464FF0123AF1
:1013A0004FF003394FF002384FF0013E4FF008364E
:1013B0004FF004356FF0020240E9059A40E907E872
:1013C00040F8306C40F8405C40F8442C43F8481D2D
:1013D0001846BDE8F08700BF9911002038B50E20EF
:1013E00003F00CFC0F2003F009FC0121032004F0A2
:1013F000DDFA01234FF05042002440B2084D8340F3
:1014000008492870C2F88C31C2F884310C7004F09D
:1014100033FA054804F0A8FAFFF7F2FE204638BD7B
:10142000C4810020C58100200D130020EFF3058347
:101430000F2B84BF014A9B5C704700BFF0E300E0C4
:10144000094B1B78FF2B0BD0EFF30583DBB22BB1DD
:101450004FF05042106800EB4300704701F048BF66
:101460004FF0504318687047C581002010B5204BDD
:101470008E461B7882B0FF2B30D04FF0010C1D49F7
:1014800002681D4B521AA3FB02131B0903EB430313
:10149000A2EBC3030CFA03F140BF00240368C3E8C6
:1014A0008F4F8EF31088EFF30583DBB233B9134B04
:1014B000186802B0BDE8104000F0DCB90F4B01AA7B
:1014C0001868019400F00AFA019B2BB14FF0E02359
:1014D0004FF08052C3F8042D02B010BD40BF00236E
:1014E0000268C2E88F3F81F3108802B010BD00BFD0
:1014F000C5810020FC840020ABAAAAAAD00A07203C
:10150000F0B5354C064694F800C00F46BCF1FF0F0D
:1015100014461D4683B04ED004F0E6F840F2E7339F
:10152000B4EB000C65EB010E1CEB03004EF1000167
:10153000B0F57A7F71F100031CDA00233268C2E84B
:101540008F3F87F31088254B5A6A95420CD94FF08C
:10155000E0234FF08052C3F8042DBFF34F8FBFF349
:101560006F8F002003B0F0BD9B6AA34230D30120EF
:1015700003B0F0BD4FF47A72002306F049FA002858
:10158000DBD000233268C2E88F3F87F31088012246
:10159000009030681249401A1249A1FB0061090904
:1015A00001EB4101A0EBC1010F4802FA01F1006813
:1015B00000F006F9C7E700230268C2E88F3F81F315
:1015C00010882046294603B0BDE8F04004F004B876
:1015D0009542BCD00120CBE7C581002000000B4024
:1015E000FC840020ABAAAAAAD00A072008B500F004
:1015F000D9F8014B186008BDD00A072001234FF02D
:101600005042034991F900108B40C2F88031704775
:10161000C481002000000000000000000000000065
:101620000BA10CC9126853F82210086806C881F390
:101630000B88022181F31488203080F30988BFF3DE
:101640006F8F4FF0000080F311881047AFF30080D8
:10165000000000D01CAC002062B661B6BFF34F8F13
:10166000BFF36F8F66DF00BFEFF311804FF0100103
:1016700081F31188BFF34F8FBFF36F8F704700BFA7
:1016800080F31188BFF34F8FBFF36F8F704700BF98
:10169000EFF309811EF0100F08BF21ED108AEFF360
:1016A0000B82734621E9FC0F55FC084457FC096482
:1016B00059FC0A8401E9F00319A00CC8106853F81A
:1016C000203019604FF0100181F31188BFF34F8F64
:1016D000BFF36F8F01F064FB4FF0000080F31188BF
:1016E0000FA10CC9126853F8221008681838B0E826
:1016F000F00345EC004447EC016449EC0284B0E897
:10170000FC0F13F0100F08BFB0EC108A82F30B88A7
:1017100080F30988184700BFAFF30080AFF3008063
:10172000000000D01CAC00201EF0040F0CBFEFF333
:101730000880EFF3098001490847000035130020B5
:101740002DE9F04106460D4601F006FB3368346989
:1017500006F10C072B43A74233601ED04FF0000860
:101760000AE01D4206D0D30148BF48EA050802F04E
:10177000BBFC3368A7420ED020460268646812F0B2
:10178000806F43F0007122F07F45EAD035EA030C08
:10179000E9D0A742F0D123EA08033360BDE8F04165
:1017A00002F09ABC10B51C2004F07CF9044620B16C
:1017B000002340F8043B00F09FF8204610BD00BF16
:1017C0002DE9F04106461F460D46904601F0C4FA49
:1017D000346867B92C420DD0B8F1000F0CD024EA60
:1017E0000505356002F078FC2046BDE8F08135EA59
:1017F0000403F1D0069B23B902F06EFC2046BDE83D
:10180000F081B8F1000F1A460BBF4FF080614FF026
:10181000A06100234FF08073002F08BF1946301DD0
:10182000294301F04DFC02F057FC48B102F0FCFDE9
:10183000830104460BD524F07F442046BDE8F081A7
:1018400001F0ACFE02F0F0FD83010446F3D401F098
:10185000C7FE346857B9254205D0B8F1000F02D051
:1018600024EA0505356001F085FFE4E735EA040365
:10187000F9D1F2E72DE9F04106460D4601F06CFA88
:101880003168346906F10C070D43A74235601ED05C
:101890004FF000080AE02A4206D0DB0148BF48EAC0
:1018A000020802F021FC3568A7420ED020460368EA
:1018B000646813F0806F45F0007123F07F42EAD036
:1018C00032EA050CE9D0A742F0D125EA08053560D7
:1018D00002F002FC2846BDE8F08100BF8C4600B54E
:1018E000864613467146624602485DF804EB03F0F3
:1018F00091B800BF411700204FF0FF31002200F1E6
:101900000803C0E90131C0E903330260704700BF3A
:1019100000230361704700BFD0E9002310B49C6826
:1019200001328C609C684B60616099605DF8044B8B
:1019300008610260704700BF30B40D686B1C10D0A6
:1019400000F108031C465B681A68AA42FAD90268CB
:101950004B60013299608C606160086130BC02604C
:10196000704704696368F2E70346026910B454687B
:10197000406899689C428160486008BF51600021BE
:1019800010685DF8044B013819611060704700BFA2
:1019900070B51546026C0446866B2AB905684DB3CE
:1019A00000200136A66370BD7DB9406806F010FACC
:1019B0006368226C1344A26863609342F0D3236887
:1019C000013628466360A66370BDC06806F000FA61
:1019D000226CE36851429B1A2268E360934202D270
:1019E000A3680B44E360022DDAD1012E38BF012633
:1019F0000020D7E7806801F00BFD0136A560D1E734
:101A00002DE9F047064684B001F0EAFD96F845302E
:101A10005DB2002D1CDD06F1240708E0A26BE36B2C
:101A200003969A423DD36B1EDAB25DB282B1B46CBA
:101A3000002CF3D1736A5BB1384601F0DFFB00285C
:101A4000F1D001F04BFC6B1EDAB25DB2002AEED190
:101A5000FF2386F8453001F08DFE01F0C1FD96F8B8
:101A600044305CB2002C14DD06F1100503E0631E67
:101A7000DAB25CB26AB133695BB1284601F0BEFBF1
:101A80000028F4D001F02AFC631EDAB25CB2002A0E
:101A9000F1D1FF2386F8443004B0BDE8F04701F0EF
:101AA00069BE94F84580226CD4F838904FFA88F8D3
:101AB00092B92368002B3BD04FF0000A09F10103D3
:101AC000B8F1FF3FA3631CD1636A43BBBAF1000FB7
:101AD000A9D001F003FCB6E7606803A906F078F925
:101AE0006368226C1344A26863609342E4D3236862
:101AF000B8F1FF3F636009F101034FF0000AA363EF
:101B0000E2D001F037F94045E0D908F101084FFA79
:101B100088F884F84580BAF1000FDAD183E704F140
:101B2000240001F06BFB0028D0D001F0D7FB8AE73E
:101B3000A068019301F06CFC019B8246A360BDE7A5
:101B4000F0B5846C83B0A26BE36B01909A4203D32F
:101B50000025284603B0F0BD94F84560226CA76BC1
:101B600076B2E2B1606801A906F032F96268236CCE
:101B70001A44A36862609A4213D300252368636005
:101B80000137731CA76312D1636A002BE1D004F103
:101B9000240001F033FB002818BF0125D9E7256890
:101BA00075B10137731C4FF00005A763ECD001F04D
:101BB000E1F88642CDD2013676B284F84560C8E7B6
:101BC000A06801F025FCA5600546D9E7F8B5C0B3CB
:101BD0001746A0FB012305460E4693BB01FB00F010
:101BE00010F1550F2DD8543003F05CFF044640B37C
:101BF00056B300F15403C4E90F56236001F0F0FC22
:101C0000D4E90F3101FB03F32268591A134400256C
:101C1000A360FF2362600A44E260A56304F1100040
:101C200084F8443084F84530FFF766FE04F1240060
:101C3000FFF762FE01F09EFD84F850702046A56417
:101C4000F8BD00242046F8BD0346D4E72DE9F04353
:101C5000002685B0044689461F46B046019207E03B
:101C600001F088FD2046FFF7CBFE02F035FA012691
:101C700001F0B6FCA06BE26B90423AD3022F4CD03D
:101C8000019D002D54D086B301F074FD01F064F87D
:101C900001F0A6FC94F84430FF2B08BF84F8448080
:101CA00094F84530FF2B08BF84F8458001F062FDB1
:101CB00001A902A802F060FA00283FD101F090FCCF
:101CC000A26BE36B9A42CBD101F054FD019904F170
:101CD000100001F0DBF92046FFF792FE02F0FCF95C
:101CE0000028C4D101F05AFCC1E702A801F0EAFAC9
:101CF000CAE73A4649462046A56BFFF749FEA36C62
:101D00002BB3022F11D02046FFF71AFF18BB01F0AA
:101D100031FD012005B0BDE8F0833A464946204632
:101D2000A56BFFF735FEA36C8BB1002DEBD0EEE772
:101D300001F020FD284605B0BDE8F0832046FFF7FE
:101D40005FFE02F0C9F9002005B0BDE8F083636AC8
:101D500023B90028DBD001F021FCD8E704F12400EE
:101D600001F04CFA0028D2D0F5E700BF70B5054667
:101D7000542003F097FE044668B300260123206038
:101D8000C0E90F3601F02CFCD4E90F20FF2300FB43
:101D900002F22168101A61600A440144C4E9022178
:101DA000A66304F1100084F8443084F84530FFF74E
:101DB000A3FD04F12400FFF79FFD01F0DBFC334697
:101DC00032463146204684F85050A664A66026600C
:101DD000E660FFF73BFF204670BD00BF2DE9F843EA
:101DE000044690461D460F46FFF720FB01F07AFCA3
:101DF000A26BE36B06469A4208D3022D06D000255B
:101E0000304602F0E1FA2846BDE8F883394694F8F6
:101E100045702A4620467FB2D4F83890FFF7B8FDC7
:101E20007B1C12D1A36CFBB1022D02D1B9F1000FC2
:101E30001CD12046FFF784FEC0B1B8F1000F15D0C9
:101E400001231D46C8F80030DAE700F093FF87420F
:101E50000CD2012501377FB2304684F8457002F07C
:101E6000B3FA2846BDE8F883636A33B901253046E2
:101E700002F0AAFA2846BDE8F88304F1240001F034
:101E8000BDF90028D9D1F1E72DE9F041044684B02D
:101E90000F46019201F0A4FBA56B002D55D1019BCB
:101EA000ABB302A801F00EFA2E4604F1240801F0AB
:101EB00061FC00F051FF01F093FB94F84430FF2BDC
:101EC00008BF84F8446094F84530FF2B08BF84F8BD
:101ED000456001F04FFC01A902A802F04DF9E0B9FC
:101EE00001F07EFBA36B2BBB01F044FC4046019943
:101EF00001F0CCF82046FFF783FD02F0EDF808B3BF
:101F000001F06EFBA56B05BB019B002BCFD101F04F
:101F100031FC002004B0BDE8F0812046FFF770FDE1
:101F200002F0DAF801F05CFBA36B002BEFD001F0BC
:101F300021FCE5E701F01EFC2046FFF761FD02F001
:101F4000CBF8DDE701F02AFBDAE7226C5AB1E16851
:101F5000A36811449942E16028BF2168384628BF30
:101F6000E16005F035FF2369013DA5632BB901F060
:101F700001FC012004B0BDE8F08104F1100001F083
:101F80003DF90028F3D001F009FBF0E72DE9F0411D
:101F90000446002784B0019101F022FBA36B3E466A
:101FA000B846002B3AD1019D002D00F08380002E11
:101FB0004FD001F0DFFB00F0CFFE01F011FB94F8F1
:101FC0004430FF2B08BF84F8448094F84530FF2B41
:101FD00008BF84F8458001F0CDFB01A902A802F0FA
:101FE000CBF850BB01F0FCFAA36B002B35D101F00C
:101FF000C1FB2368002B54D0019904F1240001F0A7
:1020000045F82046FFF7FCFC02F066F8002845D0B2
:1020100001F0E6FAA36B0126002BC4D02268013B35
:10202000A363002A56D02369002B4AD1012701F06F
:10203000A1FB384604B0BDE8F0812046FFF7E0FC84
:1020400002F04AF801F0CCFAA36B73B101F092FBF5
:10205000DEE702A801F036F9ABE701F08BFB204682
:10206000FFF7CEFC02F038F8D2E701F083FB1FB98E
:10207000384604B0BDE8F08101F0B2FA616A19B1E6
:10208000236B1968C1F120010027A06801F022FA32
:1020900001F070FB384604B0BDE8F08101F07EFA33
:1020A000B6E701F09DFAA06801F032F9074601F0A9
:1020B00061FBA1E72F4601F05DFB384604B0BDE8A7
:1020C000F08104F1100001F099F80028AED001F081
:1020D00065FAABE702F0CAF9A060A4E710B50446C0
:1020E00082B001F07DFAA06B019001F043FB0198F2
:1020F00002B010BD000000001B4B5A68904218D07F
:10210000DA6890421ED05A6990421DD0DA69904236
:102110001CD05A6A90421BD0DA6A90421AD05A6B8D
:10212000904219D0DA6B904208BF072202D003F028
:102130003DBD00229FED0A7B03EBC20383ED007BD4
:1021400003F034BD0122F5E70222F3E70322F1E7B1
:102150000422EFE70522EDE70622EBE7AFF300806C
:1021600000000000000000001884002000297ED03C
:1021700030B400242346444D05EBC30252684FEAB5
:10218000C30C824270D034B10133082BF4D1C4E9BE
:10219000001030BC704755F83320002A5FD0072B61
:1021A00003F10102F5D005EBC20464684FEAC20CEA
:1021B000A04259D055F83240002C59D0062B03F1DB
:1021C0000202E6D005EBC20464684FEAC20CA042EA
:1021D0004AD055F83240002C4AD0052B03F10302B7
:1021E000D7D005EBC20464684FEAC20C84423BD0EE
:1021F00055F83240002C3BD0042B03F10402C8D028
:1022000005EBC20464684FEAC20CA0422CD055F81A
:1022100032406CB3032B03F10502BAD005EBC204C4
:1022200064684FEAC20CA0421ED055F83240FCB19F
:10223000022B03F1060CACD005EBCC0252689042A5
:1022400010D055F83C20BAB1012BA2D0EB6B9842CC
:1022500016D0AB6B002B9CD107234FF0380C05EB4D
:102260000C0491E74FEACC0C05EB0C048FE77047A8
:10227000134605EB0C0487E763464FEACC0CEEE708
:102280004FF0380CF0E700BF1884002070B504460A
:102290000E46154601F0A4F994F84430FF2B04BF14
:1022A000002384F8443094F84530FF2B04BF00230A
:1022B00084F8453001F05EFAA36B23B12046BDE8F7
:1022C0007040FFF79DBB04F124002A46314600F020
:1022D00047FF2046BDE87040FFF792BB064C08B5AB
:1022E000FFF71CF82368022B00D8FEE7FFF716F86B
:1022F0002368022BFAD8F8E738AC002038B5836B96
:10230000002B02DB836B012B31DD2D4C016B22682E
:102310002368126BDB6B4D1EDB07236848BF02F19D
:10232000FF329B6B002B03DB23689B6B012B1FDDB4
:102330004FF0FF3362686168126BC96BC90761684F
:1023400048BF02F1FF32896B002903DB6168896BAA
:1023500001291CDD01330AD000254FF050431B68D2
:102360009D4228D054F825309B6B02331AD138BDDA
:10237000144B1B68002BDBD19542D9DB416801F07F
:102380000101002914BF15464FF0FF33D2E70D4974
:1023900049680029DED1AA42DCDC42689207D9D51F
:1023A0000125DAE72846FFF729F96FF0010254F812
:1023B00025309A6338BD0122024B43F8252038BDF1
:1023C0001CAC0020500B07202DE9F84F794B1D68FD
:1023D00001351D60002D00F0A780DFF8F491D9F8D9
:1023E00000309D4238D2744C744E4FF050423368E6
:1023F0001B6B03EB830354F82330012B85BF0123B0
:102400006F4D6F4D2B6073681B6B03EB830354F8A8
:102410002330012B84BF01236B602B6817683BB10D
:10242000002F00F0B98033689B6B023340F0A88026
:102430006C6874B1012F00F0B98000244FF0504354
:102440001B68012B00F0AE8073689B6B023340F079
:102450008D802046BDE8F88F5A4E33681B68002BEC
:102460007ED00027544CDFF86C8150E0D2F818C0C1
:10247000D2E9033AC3F808A0CAF80430DCF8043003
:1024800010468B42DCF8003008BFCCF804A0013BBA
:102490009761CCF80030D2F82CC0BCF1000F14D0FA
:1024A000D2E908A3CAF80830DCF80430D2F824B026
:1024B0007345DCF80030CBF804A003F1FF3308BF0C
:1024C000CCF804B0D762CCF80030136BD8F800C059
:1024D00003EB830E04EB8E0A6345DAF804C088BF71
:1024E000C8F80030DCF80830C2E903C3DCF8083073
:1024F000596054F82E30CCF808100133C2F818A0F7
:1025000044F82E30FFF7FAFE33681B684BB333688C
:10251000DB68DA68936802F108019D4202F11C0E43
:10252000A4D2C9F800305FE7264B274A1868116823
:102530001960264910600A6801320A601A68126838
:1025400032B94FF0FF33DFF88890C9F8003046E722
:102550001B68DFF87C90DB681B68C9F800303EE739
:10256000154C4FF0FF33C9F800303DE70120FFF76D
:1025700045F86FF00102736820469A63BDE8F88F52
:102580000020FFF73BF86FF0010233689A636C6834
:10259000002C7FF44FAF5CE76B680124002B7FF4C5
:1025A0004DAF56E720466B60BDE8F88F3C462046AD
:1025B000BDE8F88F440B072038AC00201CAC00208D
:1025C000500B072028AC002030AC0020EC0A07207C
:1025D000E80A0720ECAE02202DE9F04F4FF05049F9
:1025E0004C4AD9F8003083B052F823200192926B04
:1025F000023240F08C804FF0010BDFF824A1DFF8AD
:102600002481454C454E0AEB0B0735E05800304419
:1026100084F801B080F801B0DAE8CF0F5FF0010C68
:10262000002801D1CAE840CFBFF35F8F80B116F810
:102630001300002861D1DAE8CFCF0120BCF1000FF0
:10264000F9D1CAE84C0FBCF1000FF4D1BFF35F8F92
:1026500084F800B006F813B048F8235045B9207844
:102660000138C0B2207018B906F81350CAE88F5F5D
:10267000019A906B02304AD158F823505DB1002284
:1026800048F8232020780138C0B2207018B906F825
:102690001300CAE88F0F60780138C0B2607020B9AB
:1026A00006EB43035870C7E88F0F0020FEF7E8FFE2
:1026B000FEF7DAFFD9F80030D7E8CF0F5FF0010C52
:1026C000002801D1C7E840CFBFF35F8F00289DD01D
:1026D00006EB430C9CF8012058009AB9D7E8CFEFDD
:1026E0005FF0010CBEF1000FF8D1C7E84ECFBEF18C
:1026F000000FF3D1BFF35F8F89E720780130C0B2BC
:102700002070A9E760780130C0B2607084E703B040
:10271000BDE8F08F1CAC0020C8AE0220C4AE022081
:102720000A850020CCAE022070B582B0FEF79CFF77
:102730004FF05042364B1268D3E8CF1F01240029D6
:1027400001D1C3E8414FBFF35F8F324D00293ED125
:1027500051000123304C294463704B702F4E336875
:10276000002B45D04FF050432D4A1968D2E8CF3F97
:102770005FF0010C002B01D1C2E843CFBFF35F8FA4
:1027800083B115F81130002B3DD1D2E8CFCF012312
:10279000BCF1000FF9D1C2E84C3FBCF1000FF4D1FD
:1027A000BFF35F8F0123237005F8113033680133C5
:1027B00033602378013BDBB223701BB905F811307D
:1027C000C2E88F3F02B0BDE87040FEF759BF51002C
:1027D00005EB4202527882B9D3E8CF4F0122002C98
:1027E000FAD1C3E8442F002CF6D1BFF35F8FB0E7D6
:1027F0000190FFF7F1FE0198B4E7074C63780133CD
:10280000DBB26370AAE723780133DBB22370CDE734
:102810000B850020C4AE0220C8AE0220E4AE022028
:102820000A8500202DE9F84F4FF05045464A474BA6
:10283000474C0F46D4F800A0464ED2F8008004461C
:10284000D3F80090FEF710FF2B6856F823B0FEF780
:1028500017FF00238BF87930FEF706FF2B6856F838
:1028600023B0FEF70DFF0BF10800FFF77DF8631CA6
:1028700000D18FBB4FF050451AEB04042CBF012749
:102880000027FEF7F1FE2B6856F823A0FEF7F8FEAE
:10289000CAF8084097B9FEF7E7FE2B6856F82350B0
:1028A000FEF7EEFE404605F10801FFF745F82A4B1A
:1028B0001A68A24288BF1C60BDE8F88FFEF7D4FEFC
:1028C0002B6856F82340FEF7DBFE484604F108016A
:1028D000BDE8F84FFFF730B8204C6768FEF7C4FE3C
:1028E0002B6856F82380FEF7CBFEC8F80C70FEF775
:1028F000BBFE2B6856F82380FEF7C2FEBB68C8F803
:102900001030FEF7B1FE2B6856F82380FEF7B8FEB4
:10291000BA6808F108035360FEF7A6FE2B6856F864
:102920002380FEF7ADFE08F10803BB60FEF79CFEB6
:102930002B6856F82350FEF7A3FE2368AC610133E1
:102940002360BDE8F88F00BF28AC002030AC002029
:10295000440B07201CAC0020E80A07201C0B0720B2
:10296000F8B5794E04460D46FEF77EFE336883B116
:102970004FF05043754A1B6852F8231000295FD06E
:1029800052F82310013142F8231052F82330012B62
:1029900043D0002C49D0274633687D604BB1BB6BD8
:1029A000002B03DBBB6B012B40F387802046FFF736
:1029B000A5FC4FF050431B683268002A2CD0634AB4
:1029C00052F8231041B352F82310013942F8231072
:1029D00052F8232002BB5E495E4A52F823400A782F
:1029E000013AD2B20A702AB95B4800F813205B485A
:1029F000C0E88F2F4A78013AD2B24A7032B95649AC
:102A0000574801EB43035A70C0E88F2F0020FEF7B0
:102A100037FE002C40F08380F8BD524B1B68002B22
:102A2000B7D1FFF7D9FD002CB5D1FEF71DFE4FF051
:102A300050424D4B126853F82270FEF721FEABE76F
:102A40004749D1E8CF0F0127002801D1C1E8407FD5
:102A5000BFF35F8F404F00284AD158004FF0010C60
:102A60003B49384481F801C080F801C03B48D0E8B8
:102A7000CFCF5FF0010EBCF1000F01D1C0E84CEFE9
:102A8000BFF35F8FBCF1000F12D017F813C0BCF179
:102A9000000F48D1D0E8CFEF5FF0010CBEF1000F7E
:102AA000F8D1C0E84ECFBEF1000FF3D1BFF35F8F76
:102AB0000120087007F8130062E7BC6BE540EB07E4
:102AC0003FF577AF4FF050452B689C4236D0264FEC
:102AD00057F82420926B02323FF46EAF2046FEF787
:102AE0008DFD6FF0010257F824309A632B6863E77D
:102AF00007EB430C9CF801C05800BCF1000F17D144
:102B0000D1E8CFEF5FF0010CBEF1000FF8D1C1E8C2
:102B10004ECFBEF1000FF3D1BFF35F8F9EE7BDE84C
:102B2000F840FEF7FBBB08780130C0B2087027E719
:102B3000074948780130C0B2487097E70121054A3B
:102B400042F823102B6837E7100B0720CCAE022089
:102B5000C8AE0220500B0720C4AE02200A85002018
:102B60000B850020E4AE02201CAC002000284ED0D3
:102B7000F8B56D4D0446FEF777FD2B6883B14FF035
:102B800050436A4A1B6852F82310002971D052F84A
:102B90002310013142F8231052F82330012B61D069
:102BA000634BA2699A4233D02B68002B2ED04FF092
:102BB00050435E4A1B6852F8231039B352F8231071
:102BC000013942F8231052F82320FAB959495A4AD8
:102BD00052F823400A78013AD2B20A702AB957480B
:102BE00000F813205648C0E88F2F4A78013AD2B235
:102BF0004A7032B95149534801EB43035A70C0E857
:102C00008F2F0020FEF73CFD002C7ED1F8BD7047D1
:102C1000E36A4D4A9342C7D0002BC5D194F878306F
:102C2000012BC1D004F108063046FEF79DFE474A4D
:102C3000236B11688B42464988BF136003EB830303
:102C400001EB830042689B009768E2602761976808
:102C50007E609660CA58A06101322046CA50FFF7D4
:102C60004DFBA1E73B4B1B68002B99D1FFF7B4FC50
:102C700096E73449D1E8CF0F0126002801D1C1E8F9
:102C8000406FBFF35F8F00282BD12C485E004FF0C0
:102C9000010C2849064481F801C086F801C0284E7D
:102CA000D6E8CF7F5FF0010C002F01D1C6E847CFF7
:102CB000BFF35F8F87B110F81370002F29D1D6E8CA
:102CC000CFCF0127BCF1000FF9D1C6E84C7FBCF192
:102CD000000FF4D1BFF35F8F01260E7000F8136070
:102CE00055E716485E0000EB43077F78B7B9D1E897
:102CF000CFCF0127BCF1000FF9D1C1E84C7FBCF167
:102D0000000FF4D1BFF35F8FC1E7BDE8F840FEF7D5
:102D100005BB08780130C0B2087038E705494E7825
:102D20000136F6B24E70BAE7100B0720CCAE022087
:102D30001C0B0720C8AE0220500B0720C4AE022097
:102D40000A8500200B850020FC0A0720ECAE02203B
:102D500038AC0020E4AE0220024B1B6803B9704778
:102D6000FFF7E2BC100B0720014B1868704700BF4B
:102D7000440B0720014B1868704700BFDCAE0220EF
:102D8000054B1B680BB9FFF71FBB044A00201368F3
:102D900001331360704700BFE4AE0220F80A072039
:102DA0002DE9F04F0546DFF8B0B283B0DBE8CF3F46
:102DB0000122002B01D1CBE8432FBFF35F8FDFF857
:102DC0009C92002B4ED1430001930122019BDFF81E
:102DD00090824B4488F801205A709A49D1E8CF3F3D
:102DE0000122002B01D1C1E8432FBFF35F8F83B1D4
:102DF00019F81530002B40F0B4809249D1E8CF2F5C
:102E00000123002AFAD1C1E8423F002AF6D1BFF3DC
:102E10005F8F012388F8003009F815308A4B1B6852
:102E2000002B32D00122894B43F8252098F800303E
:102E3000013BDBB288F8003023B909F81530814A2C
:102E4000C2E88F3F98F80130013BDBB288F80130CF
:102E50002BB9019A914489F80130CBE88F3F03B038
:102E6000BDE8F08F4300019309EB40035B78002B32
:102E70006ED1DBE8CF2F0123002AFAD1CBE8423F05
:102E8000002AF6D1BFF35F8F9FE7704A704EDFF8DC
:102E9000D4A142F82530DAF8007056F825306D4993
:102EA0009A6956F825301B6B03EB830301EB830310
:102EB0009A425DD00120674B07EB870103EB81014C
:102EC0000B6802460831A84063B922B1DAF8003035
:102ED000013BCAF800305FB351F81C3C1439013F84
:102EE000002BF2D04B688B4218BFBC4607D12BE0B9
:102EF00056F82540A24221D05B688B4223D0DA6885
:102F0000946B671CF4D157683842F5D056F82530D9
:102F10009C6356F82510956346F8252041B1086B4F
:102F20004C4F8B6900EB800207EB8202934232D058
:102F30004FF050431B6856F8233077E7546820421F
:102F4000DAD09563F4E76746002FF1D00022C3E79B
:102F5000DFF80C8198F801300133DBB288F80130DA
:102F60003BE798F800300133DBB288F8003055E7D2
:102F700056F825000830FEF7F7FC56F8253056F8CD
:102F80002510186B334B00EB800003EB80000831F9
:102F9000FEF7C2FC8EE7CA6B4B68D70723FA05F22F
:102FA00048BF00F1FF30D10704D556F825205268FC
:102FB00023EA02039A0703F0030112D572687168CD
:102FC000126BC96BCF0700D5013A824203F00101B1
:102FD00007DA73689B6B002B03DB73689B6B012B19
:102FE00042DDCB07A4D5336832681B6BD26BD107A7
:102FF00048BF03F1FF33834207DA33689B6B002B32
:1030000003DB33689B6B012B35DD621C90D04FF0E6
:1030100050473B68A3420ED056F82420926B0232F0
:1030200089D02046FEF7EAFA6FF0010256F8243004
:103030009A633B687FE70123044A42F824303B68E7
:1030400079E700BF0A850020E4AE0220500B07207C
:103050001CAC002038AC00200B850020C4AE022040
:10306000C8AE0220ECAE0220074B5B68002BB8D143
:1030700039B90124CBE7044B1B68002BC5D11C4692
:10308000C5E710460124AEE7500B072070B50C468B
:103090000546FEF7E9FA4FF05042084B126853F824
:1030A0002260FEF7EDFA284606F11C01FEF744FC0B
:1030B0002046BDE870400121FFF7B4BB1CAC0020E6
:1030C0002DE9F8434FF050460F4604469046234DF5
:1030D000FEF7CAFA336847F0004755F82390FEF729
:1030E000CFFAC9F81C706768FEF7BEFA336855F866
:1030F0002390FEF7C5FAC9F82070FEF7B5FA3368D9
:1031000055F82390FEF7BCFABB68C9F82430FEF7E7
:10311000ABFA336855F82390FEF7B2FABA6809F1B2
:103120001C035360FEF7A0FA336855F82390FEF7AE
:10313000A7FA09F11C03BB60FEF796FA336855F84D
:103140002350FEF79DFA236840460133EC620121CB
:103150002360BDE8F843FFF765BB00BF1CAC00204F
:103160002DE9F0474FF05046044617468946D0F8FF
:103170000480214DFEF778FA336855F823A0FEF756
:103180007FFACAF82080FEF76FFA336855F823A05B
:10319000FEF776FAD8F80830CAF82430FEF764FA59
:1031A000336855F823A0FEF76BFAD8F808200AF127
:1031B0001C035360FEF758FA336855F823A0FEF756
:1031C0005FFA0AF11C03C8F80830FEF74DFA3368BD
:1031D00055F82350FEF754FA2368002F03F101033A
:1031E000EC62394608BF4846236018BF4FF0FF30F5
:1031F000BDE8F047FFF716BB1CAC002070B50025FA
:10320000C368D868C36AD0E90842A26054605C68A9
:1032100000F11C018C42264C08BF5A601A682468D1
:10322000013AC5621A60002C34D1D0E903218369C8
:103230009160016900F108054A605A68AA421A685B
:1032400008BF59601B49013A1A60036B0A68934230
:1032500088BF0B60184903EB83034FEA830C01EB33
:1032600083035A689468C260046151F80C40966800
:10327000013475609560836141F80C40FFF73EF8BA
:103280004FF050420D4B126853F82200003818BF1F
:10329000012070BD0A4B5A689468C0E908249468FC
:1032A00061601C6891600134C3621C60E6E700BF86
:1032B000E4AE0220ECAE022038AC0020500B072018
:1032C000FC0A0720034A044B12681B68C0E900236C
:1032D000704700BFEC0A0720440B07204FF0504214
:1032E0000121024B126843F822107047500B07204F
:1032F00010B5FEF7B9F94FF05042044B126853F87D
:103300002240FEF7BDF9204610BD00BF1CAC0020D6
:103310002DE9F041044688B34FF05046076B394D14
:10332000FEF7A2F9336855F82380FEF7A9F9D8F81B
:1033300030309F4224D2E369002B0ADBFEF794F978
:10334000336855F82360FEF79BF9336BC3F1200314
:10335000E361236B2C4EA26903EB830306EB83032B
:103360009A421CD0FEF780F94FF050431B6855F885
:103370002350FEF785F901202B6B2363BDE8F08114
:10338000A46DFEF771F9336855F82350FEF778F90C
:10339000286B84422CBF00200120BDE8F08104F19D
:1033A00008073846FEF7E0FAFEF75EF94FF05043A3
:1033B0001B6855F82350FEF763F9144A2B6B11680C
:1033C00023638B4288BF136003EB8303980006EBF3
:1033D00083035A689168E2602161956831586F6093
:1033E0009760A361A36B0131002B315002DBA36B0B
:1033F000012B04DD2046FEF781FF0120BEE70120FE
:10340000BCE700BF1CAC002038AC0020ECAE0220B2
:1034100058B1C36D016B826D013B914270B504469A
:10342000C36500D01BB1002070BD0020704700F1C3
:1034300008052846FEF798FAA36D224AC3F1200139
:10344000E161116823638B421F4988BF136003EB5E
:1034500083034FEA830C01EB83035A689068E260B0
:103460002061966851F80C0075609560A361A36BAC
:103470000130002B41F80C0002DBA36B012B01DDB6
:10348000012070BD4FF05043A26B1B689A4211D0CF
:10349000A36B0E4D55F823309B6B0233F0D0A06B1D
:1034A000FEF7ACF86FF00102A36B012055F8233052
:1034B0009A6370BD0123A16B054A184642F821307A
:1034C00070BD00BFECAE022038AC00201CAC002068
:1034D000500B072060B1826DF8B5914238BF11469C
:1034E000036B04468B4202D0C26D012A01D0F8BDA5
:1034F0007047C269254D002A03EB8303826901638B
:1035000005EB8303A4BFC1F12001C1619A42EED152
:1035100000F108063046FEF727FA1D4A236B1168B2
:103520008B4288BF136003EB8303980005EB830392
:103530005A689168E2602161976829587E609660B8
:10354000A361A36B0131002B2950D0DBA36B012BAE
:10355000CDDC4FF05043A26B1B689A4210D0A36B96
:103560000C4D55F823309B6B0233C0D0A06BFEF797
:1035700045F86FF00102A36B55F823309A63F8BD4C
:103580000121A26B044B43F82210F8BD38AC002097
:10359000ECAE02201CAC0020500B072000B583B01D
:1035A000FEF762F84FF050430B4A1B6852F8232095
:1035B00042B10121094A42F8231003B05DF804EB3F
:1035C000FEF75EB80190FDF7A9FE019803B05DF823
:1035D00004EBFEF755B800BFCCAE0220500B07201D
:1035E00038B5FEF741F8384B1B687BB14FF05043BC
:1035F000364A1B6852F8231089B152F82310013162
:1036000042F8231052F82330012B00D038BD304B44
:103610001B68002BFAD1BDE83840FEF7DDBF2D490D
:10362000D1E8CF0F0124002801D1C1E8404FBFF3FA
:103630005F8F002829D128484FEA430C0121274CED
:10364000844461708CF801102549D1E8CF5F5FF0A8
:10365000010C002D01D1C1E845CFBFF35F8F7DB1D3
:1036600010F8135025BBD1E8CFCF0125BCF1000FD6
:10367000F9D1C1E84C5FBCF1000FF4D1BFF35F8F0B
:103680000121217000F81310B7E713484FEA430CEB
:1036900000EB4304647884B9D1E8CF5F0124002DA6
:1036A000FAD1C1E8454F002DF6D1BFF35F8FC5E7D2
:1036B00021780131C9B221709FE7084C617801314E
:1036C000C9B26170C0E700BF100B0720CCAE02206A
:1036D000E4AE02200B850020C4AE0220C8AE02205A
:1036E0000A85002038B51E4B186800B938BD4FF068
:1036F00050431C68FDF7B8FF1A4A52F824302BB12A
:1037000052F82430013342F8243038BD164BD3E848
:10371000CF1F0125002901D1C3E8415FBFF35F8FAF
:1037200031B912490123124D2B7001F81430E7E72B
:103730000E4911F814506DB9D3E8CFCF0125BCF173
:10374000000FF9D1C3E84C5FBCF1000FF4D1BFF317
:103750005F8FE7E706490B780133DBB20B70CFE7E9
:10376000100B0720CCAE02200A850020C4AE022038
:10377000C8AE02201C4B1B68002B2FD04FF05043CB
:103780001A4A1B6852F8231041B352F8231001392A
:1037900042F8231052F8232002BB10B51449154AF1
:1037A00052F823400A78013AD2B20A702AB9124874
:1037B00000F813201148C0E88F2F4A78013AD2B29E
:1037C0004A7032B90C490E4801EB43035A70C0E805
:1037D0008F2F0020FDF754FF0CB910BD7047BDE8D6
:1037E0001040FDF79BBD00BF100B0720CCAE0220A0
:1037F000C8AE0220500B0720C4AE02200A8500206C
:103800000B8500202DE9F0410546FFF7E9FE2C4A23
:103810002C4F1368013313603B682BB32A4E2B4B9C
:1038200005F108041A6801322A651A60284A2B6BD0
:1038300011688B4288BF136003EB8303980006EB8B
:1038400083035A683F689168EA602961315801F141
:10385000010C91684C609460AB6146F800C047BBB6
:10386000BDE8F041FFF786BF1368174E012BD6D194
:10387000344606F5207820461434FEF73DF8A0457E
:10388000F9D1DFF86880134C4046FEF735F8204642
:10389000FEF732F81048FEF72FF81048FEF72CF824
:1038A0000F48FEF729F80F4BC3F800800E4B1C6041
:1038B000B5E72846FEF722FDBDE8F041FFF75ABF05
:1038C000DCAE0220100B072038AC0020E8AE02204E
:1038D000ECAE0220BC0A0720FC0A0720300B0720B0
:1038E0001C0B072028AC002030AC0020A80A0720C1
:1038F0002DE9F8439600804630460D46994602F081
:10390000D1F8002800F0A48007467C2002F0CAF815
:103910000446002800F0A0807C22002104F0CEFAAA
:1039200032463846A521676304F0C8FA636B043E4B
:103930001E4426F00706002D56D02B7884F8403020
:103940002B78002B4DD06B7884F841306B78002BAE
:1039500047D0AB7884F84230AB78002B41D0EB787D
:1039600084F84330EB78002B3BD02B7984F844303B
:103970002B79002B35D06B7984F845306B79002B8F
:103980002FD0AB7984F84630AB7953B3EB7984F818
:103990004730EB792BB32B7A84F848302B7A03B37A
:1039A0006B7A84F849306B7ADBB1AB7A84F84A30B1
:1039B000AB7AB3B1EB7A84F84B30EB7A8BB12B7BDB
:1039C00084F84C302B7B63B16B7B84F84D306B7B80
:1039D0003BB1AB7B84F84E30AB7B13B1EB7B84F80F
:1039E0004F30002384F84F30089D04F108001F2D4C
:1039F00028BF1F252563A565FDF78AFFC5F12005B2
:103A000004F11C00FDF784FF4B4642463046616BD3
:103A10006461E561A462FDF7A3FC4FF0FF32124B35
:103A200020609845A2630ED0104B98450BD0099B9F
:103A300003B11C604FF0FF3320466360FFF7E2FEE6
:103A40000120BDE8F883E36B43F00103E363EEE795
:103A50004FF0FF30BDE8F883384602F0A7F84FF08A
:103A6000FF30BDE8F88300BF31420020DD22002096
:103A70002DE9F8439600804630460D46994602F0FF
:103A800011F8002800F0A38007467C2002F00AF815
:103A90000446002800F09F807C22002104F00EFAEA
:103AA00032463846A521676304F008FA636B043E8A
:103AB0001E4426F00706002D56D02B7884F840309F
:103AC0002B78002B4DD06B7884F841306B78002B2D
:103AD00047D0AB7884F84230AB78002B41D0EB78FC
:103AE00084F84330EB78002B3BD02B7984F84430BA
:103AF0002B79002B35D06B7984F845306B79002B0E
:103B00002FD0AB7984F84630AB7953B3EB7984F896
:103B10004730EB792BB32B7A84F848302B7A03B3F8
:103B20006B7A84F849306B7ADBB1AB7A84F84A302F
:103B3000AB7AB3B1EB7A84F84B30EB7A8BB12B7B59
:103B400084F84C302B7B63B16B7B84F84D306B7BFE
:103B50003BB1AB7B84F84E30AB7B13B1EB7B84F88D
:103B60004F30002384F84F30089D04F108001F2DCA
:103B700028BF1F252563A565FDF7CAFEC5F12005F1
:103B800004F11C00FDF7C4FE4B4642463046616B13
:103B90006461E561A462FDF7E3FB4FF0FF32114B76
:103BA00020609845A2630DD00F4B98450AD00A9B20
:103BB00003B11C60099B20466360FFF723FE0120D0
:103BC000BDE8F883E36B43F00103E363EFE74FF0F5
:103BD000FF30BDE8F883384601F0E8FF4FF0FF30D2
:103BE000BDE8F88331420020DD2200202DE9F84FA6
:103BF0000026DFF800813D4FDFF810914FF40060A0
:103C000001F050FF06F1300A054600285CD07C2008
:103C100001F048FF0446002861D04FF0000B7C22E1
:103C2000594604F04BF94FF40062A521284665631C
:103C300004F044F9606B2E4B00F2FC70236420F01A
:103C4000070584F844A004F1080084F845B084F81E
:103C50004FB0C4F830B0C4F858B0FDF759FE04F1C5
:103C60001C00FDF755FE20225B46E26128464246D5
:103C7000616B6461A462FDF773FB4FF0FF33A363D4
:103C80001C4B2060984525D0C84523D04FF0FF3508
:103C90003C6020466560FFF7B5FD57F8043B164AC7
:103CA0009E63C84642F8263096B100F06DFE0128AA
:103CB0000AD1FDF7D9FC0022104B11491D60114BB0
:103CC0000E601A60FDF78AFB0F4B1B68BDE8F88F8A
:103CD000012693E7E36B43F00103E363D6E728464D
:103CE00001F064FF084B1B68BDE8F88FD80A072075
:103CF00049444C45314200201CAC0020E80A072012
:103D0000100B0720440B0720C8810020DD22002073
:103D100030B5044683B0FFF763FC002C5ED004F19D
:103D200008052846FDF720FEE36A1BB104F11C00DC
:103D3000FDF71AFE3B4AA16B1368013103F1010341
:103D40001360394B1B682CD05BB329463748FDF70D
:103D5000E3FD374A136801331360A36B002B1BDBB1
:103D6000A36B012B18DC4FF05045A26B2B689A42D5
:103D700045D0A26B93423CD0A36B2E4D55F8233017
:103D80009B6B023308D0A06BFDF738FC6FF001028B
:103D9000A36B55F823309A6303B0BDE83040FFF7BA
:103DA000E9BC254A25491368013B13600B681B6871
:103DB0007BB10A68224BD26812681A60FFF7DAFCFE
:103DC000606B01F0F3FE204603B0BDE8304001F027
:103DD000EDBE4FF0FF321A4B1A60EFE7FDF744FCDF
:103DE0004FF05042134B126853F82240FDF748FC45
:103DF00095E70121A26B134B43F82210CCE7FDF7A6
:103E000033FC2B68104A52F8232032B101210D4AAD
:103E100042F82310FDF734FCBEE70190FDF77EFA6F
:103E20000198F7E7E8AE0220100B0720300B0720BF
:103E3000E0AE02201CAC0020DCAE022028AC00204A
:103E4000E80A0720500B0720CCAE022030B504460C
:103E500083B0FFF7C5FB002C4BD004F108052846C2
:103E6000FDF782FDE36A1BB104F11C00FDF77CFD48
:103E700029463248FDF750FD94F87830012B04BFF5
:103E8000002384F878302E4B1B6873B12D4B1A68D1
:103E900012687AB11A682C4BD26812681A60A36B48
:103EA000002B02DBA36B012B09DD03B0BDE8304022
:103EB000FFF760BC4FF0FF32234B1A60EFE74FF083
:103EC0005045A26B2B689A4224D0A26B93421BD020
:103ED000A36B1E4D55F823309B6B0233E5D0A06BCE
:103EE000FDF78CFB6FF00102A36B55F823309A634A
:103EF000DBE7FDF7B9FB4FF05042144B126853F863
:103F00002240FDF7BDFBA8E70121A26B104B43F84F
:103F10002210CAE7FDF7A8FB2B680E4A52F82320AF
:103F200032B101210A4A42F82310FDF7A9FBBCE790
:103F30000190FDF7F3F90198F7E700BF1C0B07208C
:103F4000100B072028AC0020E80A07201CAC00203A
:103F5000500B0720CCAE02202DE9F04F83B0FFF7C5
:103F60003FFB4FF05041504D504A2B68D1F800B004
:103F7000013B2B605378013BDBB2537033B94C4AA1
:103F80004C4902EB4B025370C1E88F3FD5F800C09B
:103F9000BCF1000F7FD1484B1868002874D0474E01
:103FA0003368002B4ED0DFF828E1454CF368DB681E
:103FB000D96AD3E90820906042604A6803F11C087E
:103FC00042450A6808BF4860013AC3F82CC00A603D
:103FD000D3F8189003F10800D9F80480D3E903124C
:103FE00080458A60516008BFC9F80420D9F80010E4
:103FF0001A6BDEF800A002EB82080139C9F8001044
:10400000524504EB880988BFCEF80020D9F8042077
:1040100054F82810976801311F61D2F808A0DA60BF
:10402000CAF804009060C3F81890336844F8281068
:10403000002BBBD1234B1A68126872BB4FF0FF32C2
:10404000214B1A60DFF88C90204ED9F80040B4B1B3
:104050004FF0010806E0FEF7B7F908B146F82B80EB
:10406000013C0AD02B68002BF5D0D9F80030013C78
:1040700003F10103C9F80030F4D1C9F8004056F843
:104080002B00003818BF01200190FFF773FB019847
:1040900003B0BDE8F08F0020F6E71A680A4BD2683B
:1040A00012681A60CEE700BFE4AE0220C8AE02205C
:1040B000C4AE02200B850020DCAE0220FC0A0720E3
:1040C00038AC002028AC0020E80A0720500B07205D
:1040D000ECAE0220F80A0720024B186800B97047BE
:1040E000FFF73ABF100B0720F8B5D0E901250027EC
:1040F00041F00041C468036901609560816804F182
:1041000008054A605A6882421A6808BF5960013A35
:10411000D4E9031607611A60A3698E6022695160B1
:104120005968A94208BF5A601A681149013A1A60D1
:104130000A68236B934288BF0B600E4903EB83032D
:10414000980001EB83035A689668E26026619668DE
:10415000756095600A58A36101320A50FFF740FA72
:104160002046FEF7CBF8BDE8F840FFF703BB00BFE1
:10417000ECAE022038AC00202DE9F84F04464FF099
:10418000504A284D0E46284FFFF72AFAD5F80090DE
:10419000D4F80480FDF768FADAF8003057F823B055
:1041A000FDF76EFA9BF8790050BB33685A1C0FD0AC
:1041B0001E4A21681068814210D0616849450DD8B7
:1041C000002301253360FFF7D5FA2846BDE8F88FB4
:1041D0000546FFF7CFFA2846BDE8F88FA9EB08019E
:1041E0008B42EDD911682A680025A3EB09034344EB
:1041F0003360C4E90012FFF7BDFA2846BDE8F88F26
:10420000FDF732FADAF80030012557F82340FDF7C0
:1042100037FA002384F87930FFF7ACFA2846BDE876
:10422000F88F00BF440B07201CAC0020EC0A0720CD
:104230002DE98848FDF772F84FF0504A4FF0010918
:10424000564C574F574DDFF87C81574E236893B338
:10425000FDF70AFA3B6873B1DAF8003055F823200D
:10426000002A39D055F82320013245F8232055F88B
:104270002330012B29D0236823B3D8F80C30D3F88E
:104280000CB0DBF83830013373D10BF10800FDF7C7
:104290006BFB3368013B33602368013B2360FFF70E
:1042A00069FADBF8340001F081FC584601F07EFC2D
:1042B0002368002BCCD13D4B1B68022BC6D9FDF7E0
:1042C0002DF8C3E7FFF756FAC0E7394B1B68002B00
:1042D000D1D1FEF781F9CEE73648D0E8CF2F0121C2
:1042E000002A01D1C0E8421FBFF35F8F002A2CD102
:1042F0004FEA430C30490CEB0102304981F8019040
:1043000082F801902E48D0E8CF2F0121002A01D158
:10431000C0E8421FBFF35F8F82B1274A12F8132013
:10432000002A2ED12648D0E8CF1F01220029FAD139
:10433000C0E8412F0029F6D1BFF35F8F1F4A82F8F2
:1043400000901D4A02F813908CE71B4A4FEA430C79
:1043500002EB43025178D1B9164AD2E8CF0F0121BE
:104360000028FAD1C2E8401F0028F6D1BFF35F8FC2
:10437000C0E7FFF7FFF90D4B1B68022B7FF666AF16
:104380009DE70E490A780132D2B20A706AE70B49FA
:104390004A780132D2B24A70B4E700BFE0AE0220E0
:1043A000100B0720CCAE0220DCAE022038AC00207F
:1043B000E4AE02200B850020C4AE0220C8AE02206D
:1043C0000A850020300B0720124B1B68FBB14FF011
:1043D0005043114A1B6852F82310C1B152F8231000
:1043E000013942F8231052F8232082B90B490A7888
:1043F000013AD2B20A705AB910B4094C094904F80A
:104400001320C1E88F2F5DF8044BFDF739B97047D1
:10441000FDF736B9100B0720CCAE0220C8AE022043
:10442000C4AE02200A850020F8B54FF05046FDF7D3
:104430001BF90D4D336855F82340FDF721F9E76965
:10444000FDF712F9336855F82340FDF719F9246B8D
:10445000FDF70AF93368C4F1200455F82350FDF73D
:104460000FF93846EC61F8BD1CAC002010B5FDF723
:10447000FBF84FF05042064B126853F82240FDF70C
:10448000FFF814B1E36D0133E365204610BD00BFB2
:104490001CAC00202DE9F843614F05460C4616463A
:1044A000FCF7C4FF3868002853D1804602212B193D
:1044B00093F8782005EB840483F87810636F012A61
:1044C00003F10103636723D03B68FBB14FF0504316
:1044D000544A1B6852F82310C1B152F82310013915
:1044E00042F8231052F8232082B94F490A78013A42
:1044F000D2B20A702AB94D484D4900F81320C1E8DC
:104500008F2F4046BDE8F843FDF7BAB8BDE8F88301
:10451000484B1B68002B2ED0474B05F11C015A68F5
:1045200090682A626862186801301860906841607B
:104530009160EB622846FDF7E1FE4FF050423F4BA1
:10454000126853F82230012BBED1002EBCD033604C
:10455000BAE74FF05043D3F80090FDF785F8314BA0
:10456000804653F82920002A2FD053F82920013201
:1045700043F829209AE7AB69D5E903128A605160B4
:10458000596805F10804A14208BF5A601A682C490D
:10459000013A1A602B6B0A68934288BF0B60294965
:1045A00003EB83034FEA830E01EB83035A689068A1
:1045B000EA60286151F80E0000F1010C9068446037
:1045C0009460AB6141F80EC0B4E7194AD2E8CF1F3E
:1045D0000120002901D1C2E8410FBFF35F8F31B93B
:1045E000124901221048027001F81920BDE70F4955
:1045F00011F8190068B9D2E8CFCF0120BCF1000F43
:10460000F9D1C2E84C0FBCF1000FF4D1BFF35F8FBA
:10461000E7E705490A780132D2B20A70A5E700BF80
:10462000100B0720CCAE0220C8AE0220C4AE022080
:104630000A850020E4AE0220FC0A0720500B072068
:10464000ECAE022038AC00202DE9F04FDFF8EC8210
:10465000DFF8ECB2DFF8EC9287B0D8F800301C68D5
:10466000002C00F00A81DB681C68FEF775FBFEF782
:104670007BFBDBF800300746984275D38442CBF8C9
:10468000000040F242810022AB4BE11B1868FDF7AD
:10469000FDFDFFF721FD002800F011810023CDE989
:1046A0000233CDE90433A44B0022186802A9FDF7B8
:1046B000EBFB0028D1D0029B002BC0F2C480049EEB
:1046C000002EF0D0736913B1301DFDF74DF9FEF7E0
:1046D0004BFBDBF800300190984214D3DDE9012355
:1046E000013BCBF80020082BDDD8DFE803F067673B
:1046F000858CA36767858C0023F0010384F828303C
:104700002046236A9847D8F800301A68002A00F03B
:10471000A380DB68DC681F6804F1040A5046FDF7DB
:1047200023F994F828305807E6D5A3692461FD18C9
:10473000FF439F4265600AD32F46FF43236A20460A
:104740009847A36924611D44BB426560F4D9514672
:10475000D9F80000FDF7F0F8D2E723F0010384F860
:1047600028302046236A9847D8F800301A68002A73
:1047700000F09680DB68DC681D6804F1040A50468E
:10478000FDF7F2F894F828305A07E6D5EA43A36912
:104790002461EE18934266600AD83546ED43236AD9
:1047A00020469847A36924611E44AB426660F4D951
:1047B0005146D9F80000FDF7BFF8D2E796F8280077
:1047C0000399B269019D8B1840F0010486F82840D6
:1047D0002CBF01240024AB427360366143D8691AB0
:1047E0008A4221D841076DD420F0010086F82800C4
:1047F0003046336A984756E796F8283023F001038D
:1048000086F828304FE7039A019896F82830111857
:1048100043F00103814286F82830B261716036614D
:1048200025D8002A3FF43FAFD9F80000311DFDF72D
:1048300083F838E796F828309A073CD523F001032F
:1048400086F828302FE7039BDDE904019847029B97
:10485000002BFFF628AF32E7D9F80020C9F8003066
:10486000C8F800203AE7A94201D9002CBAD0D8F8FC
:104870000000311DFDF760F815E7FEF76DFAFEF751
:1048800073FADBF80030074683423FF66DAFD9F884
:104890000030CBF800701A68B2FA82F25209F3E6DF
:1048A000D9F80020CBF80070C8F80020C9F8003013
:1048B000FFF712FCF2E6304601F078F9F3E6FEF776
:1048C0006DFEEBE6019D06E0914218D3336A304657
:1048D00098472346B2699C182CBF01200020A542AE
:1048E000A5EB030174603661EED29D4201D200282F
:1048F000ECD0D8F80000311DFDF71EF878E7D9F8A4
:104900000000311DFDF718F872E7FFF7E5FBD8F856
:104910000030DB68DD6805F1040A5046FDF724F835
:1049200095F828305E0715D423F0010385F8283068
:1049300028462B6A9847B1E6480B072024AC002094
:10494000E00A072034AC0020934217D828462B6A8F
:1049500098473446AB693A1BE6182CBF0121002169
:10496000BE426E602D61EFD9BC4201D90029EDD065
:104970005146D8F80000FCF7DFFFD9E75146D9F8D7
:104980000000FCF7D9FFD3E7F0B5194C85B0FEF76E
:1049900027FE25689DB1FEF7EDFE206868B14FF057
:1049A000FF351F241349002302914FF48062CDE9A3
:1049B000004511491148FFF75BF805B0F0BD104FF5
:1049C000104E3846FCF798FF3046FCF795FF0E4B2B
:1049D0002A461F600D4B10210A201E60FDF7F6F8D5
:1049E00020600028D7D00A49FDF7C0FBD3E700BFFD
:1049F000480B07204C0B07200C8000204946002064
:104A0000800A0720940A072024AC002034AC002040
:104A1000048000209C46F0B507460E4615466FF010
:104A20000104074B85B06946624618680023CDE94A
:104A3000017603950094FDF7D1F905B0F0BD00BFF4
:104A4000480B072000EB400C4FEA8C0C0CF1804C1B
:104A50000CF5803C70B5DCF80440A0F1040EB4F510
:104A6000803F38BF4FF480345FFA8EFE38BFCCF8F9
:104A70000440BEF1010F29D94FF40066244D0CF516
:104A80004054266055F82060BEB9DCF800400CF5B3
:104A9000805684EA421202F0E002BEF1010F326059
:104AA00028D94FF4006145F820304FF480330CF5DD
:104AB00000521160CCF8043070BD6C69B4FBF6F4A0
:104AC000013404EB4404033CFDD2DEE70129D3D1D9
:104AD00003250CF540542560DCF80840E407FBD5BD
:104AE000DCF800400CF5805684EA421202F0E00245
:104AF000074D32600122DCF800404C4004F0030412
:104B0000346002FA01F1DCF808200A42FBD0C8E761
:104B10008CA70020014B53F8200070478CA7002081
:104B20000FB400B583B0049C074801F0BBFA3CB158
:104B300005A92046019101F079F9044801F0B2FA83
:104B4000012001F08BF900BF148000202480002098
:104B5000EFF3108072B6064BD3E8CF1F0122002975
:104B6000FAD1C3E8412F0029F6D1BFF35F8F704718
:104B7000078500200023034AC2E88F3F80F3108896
:104B8000704700BF0785002070B5EFF3108572B63F
:104B9000134CD4E8CFCF0126BCF1000FF9D1C4E803
:104BA0004C6FBCF1000FF4D1BFF35F8F4FF0010CDD
:104BB0004FEAD10E01F007030CFA03F310F80EC010
:104BC0001CEA030608D14CEA030300F80E30C4E8DF
:104BD0008F6F85F3108870BD1046FFF7A1FF00BFEF
:104BE00007850020044A1078431CDBB2172B88BFCE
:104BF00010231370704700BFCC8100200146024A89
:104C00000248FFF7C1BF00BF2880002080A7002016
:104C10004FF0E022936843F000539360704700BF69
:104C20000021044B03F12002C3E88F1F013393429C
:104C3000FAD17047FC8400204FF0E0234FF080321F
:104C4000C3F80024C3F80424C3F80824C3F80C24D0
:104C5000C3F81024C3F81424C3F81824C3F81C2480
:104C6000C3F82024C3F82424C3F82824C3F82C2430
:104C7000C3F8302462B67047012300F01F0293404E
:104C8000400941B1800000F1604000F56140C0F88A
:104C9000803103607047024A203042F8203070476C
:104CA00000E100E00123064A410952F8212000F00A
:104CB0001F0003FA00F0104214BF1846002070478E
:104CC00000E100E0F8B50D46EFF3108772B6124E22
:104CD000D6E8CF2F0123002AFAD1C6E8423F002AA6
:104CE000F6D1BFF35F8F0D4B00F110049B680C4AA7
:104CF00053F82430934203D0994201D000F0A2FF30
:104D0000064B9B6843F82450BFF35F8F0023C6E82F
:104D10008F3F87F31088F8BD0585002000ED00E087
:104D2000110100202DE9F04F80468B46174683B0D5
:104D3000EFF3108372B6DFF8D0A10093DAE8CF1F4B
:104D400001230029FAD1CAE8413F0029F6D1BFF377
:104D50005F8F664E96F90050002DC0F2A080644C23
:104D600005EB450304EB8300817908F110083170ED
:104D700060499B008968994651F828E00646AEEBE9
:104D800004012F294FEA450231D95B4B9E4540F083
:104D9000A2805A4B09F10209A144043BA3EB090389
:104DA000C3F34A036FEAC3434FF421416FEAD3438D
:104DB000154424F8251004EB85056B804BF6015350
:104DC000AB80FF2346F0010EEF71C5F808B0AB7160
:104DD000484B9B6843F828E0BFF35F8F0023CAE885
:104DE0008F3F009B83F3108803B0BDE8F08F2EF057
:104DF000010191F807C0BC452BD84FF42146E6527B
:104E00003E4B09F102062644043B09F104099B1BB1
:104E1000A1440E1FC771A6EB0906394FC6F34A0617
:104E20003E438680C3F34A03364E3B4343804AF6F3
:104E3000AA250B461B1B5B415D432D0DC0F808B036
:104E4000857140F0010E0E60C2E7C079B8422BD9DF
:104E5000614691F9063003EB430004EB8000002B20
:104E60008446F2DA4BF6015001930B1D043EF61A0C
:104E7000C6F34A066FEAC6466FEAD64602EB050C51
:104E8000DFF88090019B8D7104EB8C058E8044F8D7
:104E90002C90A880AB71EF71C5F808B098E700F0CE
:104EA000D1FE96F900505AE788880193400501F138
:104EB000040315D44FEA605C6FF007000CF1020C9C
:104EC000A0EB090003EB4C0C001B6044C0F34A004C
:104ED00040F46040CAE7019200F0B4FE019A58E73E
:104EE00000F5FF1000F5FF501F30E3E75C0B0720D3
:104EF000D081002000ED00E01101002000820020A0
:104F000000E0FFFF01488047058500204FF0FF0CBF
:104F100020F0030303F1604303F5644300F0030052
:104F20001A68C0000CFA00FC22EA0C0281400A4315
:104F30001A607047F0B5EFF30585EDB2EFF3108C12
:104F400072B62649D1E8CF2F0123002AFAD1C1E851
:104F5000423F002AF6D1BFF35F8F214E40F0010E91
:104F6000B4684AF6AA2354F825701E4A0446A41AC7
:104F7000644163431B0D77455BB21BD092F9064039
:104F80009C421CD092F912409C4223D092F91E40C0
:104F90009C4221D092F92A409C4208BF03240FD0A2
:104FA000114A0024157813708571C1E88F4F8CF376
:104FB0001088F0BDB2680D4C42F82540F0E700249F
:104FC00004EB440402EB8402FF2494714BF6015479
:104FD0009480E5E70124F3E70224F1E7058500204A
:104FE00000ED00E0D08100205C0B072011010020C3
:104FF000014B194401607047FC8400202DE9F04109
:10500000154D164EB54224D22C4623684FF0FF377B
:105010004FF000088BB1FFF7E5FD01462846FFF78A
:10502000E7FF676084F80880BFF35F8F0C34B442F9
:105030000FD223682546002BEDD1FFF7D3FD0146A3
:105040002846FFF7D5FF6760BFF35F8F0834B4428F
:10505000EFD3BDE8F08100BF4082002050820020E5
:105060002DE9F04F2DED028B85B0EFF30583DBB218
:10507000103B9A0818BF01224FF0010103F0030012
:10508000AD4B00EB82020CBFAC4FAD4F53F822602A
:1050900001FA00F207F541539FEDA58BB046019050
:1050A00000925A6035E0B8F804301B0440F1928059
:1050B00098F80630002B40F0DF80B8F90820002A6D
:1050C000C0F22581D8F8143002EB420203EBC20291
:1050D000D2E90245B5F1FF3F08BFB4F1FF3F0DD063
:1050E000019B07EB8301BB6A0A69D21AE31A934258
:1050F00003D33B6A009A134200D10C61384600F09A
:10510000EBFA201A65EB0105012875F1000380F226
:10511000FE80B8F90840009B002CFB63C3DBD8F885
:1051200014A004EB440B38460AEBCB05D5E90296F4
:1051300000F0D2FA484561EB06010029B3DB002EEE
:10514000C0F2C3802B697F4A934200F0FD806A88D9
:10515000B8F9080092B242EA0040696998470246ED
:105160000B4652EA030100F0B080002B80F2D5809C
:10517000B9EB020066EB0303C5E902033AF93B50C1
:10518000002D90DBD8F814C005EB45010CEBC101F4
:105190008A68821ACA6863EB0202002A83DBA8F8D5
:1051A000085007E09568451BD56863EB0505002DA1
:1051B00008DB1146B1F9006006EB4602002E0CEB4D
:1051C000C202EFDA2AF83B600C80B8F804301B0406
:1051D0003FF56EAFD8F81030EFF3108272B6D3E817
:1051E000CF0F01210028FAD1C3E8401F0028F6D1D3
:1051F000BFF35F8F4FF6FF70B8F804900023D8F824
:1052000010100FFA89F9A8F80400C1E88F3F82F363
:1052100010889945FFF64CAFBA46D8F8145008F1FB
:10522000080B09EB490E05EBCE03D3E90267B8F989
:105230000830DC46002B05DA0FE035F934308446BF
:10524000002B0ADB03EB430405EBC400D0E9021298
:10525000711A67EB0202002AEFDAACF8009035F918
:105260003E9025F83E30B9F1000FDADA98F80630B2
:105270005746002B3FF421AF002388F80630B8F9D9
:10528000083008F1080C5E1C41D01A46D8F81440CA
:1052900003E08446591C3FF412AF03EB430104EBD7
:1052A000C10045881E462D0434F93130F1D59642AF
:1052B00080ED028BEED0ACF80030B8F8082024F86E
:1052C00031203246A8F80860E4E73AF83B30A8F805
:1052D0000830D8F81030EFF3108272B6D3E8CF0F51
:1052E00001210028FAD1C3E8401F0028F6D1BFF3FE
:1052F0005F8FB8F80230D8F810102AF83B3000233E
:10530000A8F80240C1E88F3F82F31088CBE640BF87
:1053100005B0BDEC028BBDE8F08F3846CDE9022325
:1053200000F0DAF9029A039B801843EB010323E7AC
:10533000FFFFFFFFFFFFFFFFFCAB002000000B4063
:1053400000800B40615000206B6918461A69029377
:1053500090470028B9D0029BD3E9002301E700BFA2
:105360000B4808B50368EFF3108172B6D3E8CFCFCE
:105370000122BCF1000FF9D1C3E84C2FBCF1000FA2
:10538000F4D1BFF35F8FFCF771F80020002108BD56
:10539000C0AE00202DE9F84F364C25692DB1BDE88F
:1053A000F84F0A213448FFF723BEDFF8E4800326D4
:1053B0000321404600F07EF9C4F80C80FFF712FC90
:1053C0004FF0504C2D4B26701844DCF800300F2164
:1053D0006370636961801D834FF00405A3F8785002
:1053E0004FF00505A3F890504FF00605A3F8A8501C
:1053F0004FF007050E21206108274FF6FF724FF08E
:105400000A0EA3F8C0504FF001094FF00C0C4FF0FA
:10541000020B4FF0090A0D204FF00B05A3F868119D
:105420001749A280A3F808E1A160A3F848B0A3F847
:10543000F0A0A3F82051A3F838C1A3F85001A3F8B5
:105440003090A3F86060A3F8D8701A800D4B3046F6
:10545000C8F820700C49DC60FFF734FC4946304640
:10546000FFF70AFC094B0A211F600348BDE8F84F0B
:10547000FFF7BEBD18820020C0AE0020FC840020D3
:10548000FFFF1000FCAB00206150002040200B40CB
:1054900000000B400146F0B50069EFF3108772B6CB
:1054A000D0E8CF5F0124002DFAD1C0E8454F002D90
:1054B000F6D1BFF35F8FB1F902E04C690EEB4E0CF1
:1054C0004FEACC06BEF1000FA8BFA05B4FF000056D
:1054D000A8BF488004EBCC0C0869C0E88F5F87F355
:1054E0001088AE4535DBBCF80200CCE90223013060
:1054F000C0F30E00012838BF0120059BACF8020064
:10550000CCF81030069B40EA0E40CCF814300B6902
:10551000EFF3108272B6D3E8CFCF0127BCF1000FB2
:10552000F9D1C3E84C7FBCF1000FF4D1BFF35F8F1A
:105530008B88A353A1F804E00B69C3E88F5F82F363
:1055400010880122CB68097803F501538A405A601C
:10555000F0BD4FF0FF30F0BD4289B2EB214F38DD96
:1055600042690B1403EB430310B502EBC303046958
:10557000EFF3108C72B6D4E8CFEF0122BEF1000F2A
:10558000F9D1C4E84E2FBEF1000FF4D1BFF35F8F05
:105590005A8889B292B28A4207D000230269C2E8CF
:1055A0008F3F8CF31088184610BD42F400425A8099
:1055B0000123002201698371C1E88F2F8CF31088C9
:1055C000C268017802F5015203FA01F118465160F0
:1055D00010BD0020704700BF2DE9F04307460E467E
:1055E00083B0EFF30584E4B274B12F4B586A88425C
:1055F00003D2002003B0BDE8F0839B6ABB4248D3CE
:10560000012003B0BDE8F083284DD5F80C9095F843
:105610000080484600F060F808F1040859F8283086
:105620001B1A381A66EB0101984271F100030DDB79
:1056300020BF1D4B586A8642DBD89B6ABB42DFD233
:10564000301A18BF012003B0BDE8F08300F04CF819
:10565000874266EB0101002913DB154B2846CDE993
:1056600000343A463346FFF715FF011E09DD0E4BA5
:105670005A6A964215D89B6ABB4210D30B48FFF773
:105680006BFF094B586A8642B3D89B6ABB42B7D2BC
:10569000D6E7401A18BF012003B0BDE8F083964258
:1056A000ECD120BFEAE700BF00000B4018820020C9
:1056B0006153002010B4054B054C064AA04214BFAC
:1056C0001846581C5DF8044BFFF75EBA84A700200B
:1056D00000800B4048800020416A0B46826A416A84
:1056E0008B42FAD110467047034B596A0A46986AB2
:1056F000596A9142FAD1704700000B4070B4039C84
:105700000568240344EA03431B4C002DB4FBF1F469
:10571000B2FBF4F21FDB194D194CA8420CBF4FF439
:1057200000454FF48045174E256004F580542560F0
:10573000B46835EA0404FBD1212500F54054043453
:105740000160826025600268002AFCDA0822C360DA
:10575000226070BC7047046804F03F048C42DAD1C8
:105760008468C4F30B049442D5D1C46804F4EE24D5
:105770009C42D0D1EDE700BF001BB7000080054080
:105780000020024000000240012300EB40008000A6
:1057900000F1804000F5841041600360704700BF55
:1057A0000023DB8A002242E800F2520201D41021D9
:1057B00018470421184700BF034AD2F82838002BA5
:1057C000FBD0BFF35F8F704700000E400021044BF9
:1057D000044ABFF35F8F43F8041B9342F9D170472B
:1057E0000C080E402C080E4010B44FF48D704FF48E
:1057F0002A64064A064B07491460D0601960536852
:10580000002BFCDA5DF8044B704700BF00800440B9
:1058100000A0044000B0FA00F8B504460D46EFF3CE
:10582000108772B60C4B9B6853F82060B14205D0CC
:105830000A4B9E420CD30A4B9E4209D2064B9B68F0
:1058400043F82450BFF35F8F87F310883046F8BDCC
:1058500000F0F8F9F2E700BF00ED00E010010020D1
:105860002401002003BD00BF10B5044600F000FA7B
:105870002346BDE8104018474FF08071144B154A7D
:1058800010B559605368D801FCD51920FFF70AFA02
:10589000002104461920FFF7EFF94FF080714FF017
:1058A000000C4FF050420C4B0C4880F801C059607E
:1058B000136DD90703D420BF136DDB07FBD54FF061
:1058C00050432146BDE8104019209B6DFFF7D4B925
:1058D00000A001400080014000B00140F4AB002076
:1058E000F0B5054687B0192017460E46FFF7DAF9DE
:1058F000002104461920FFF7BFF90021CDE9046516
:1059000003970026002701224FF050438C46CDE933
:1059100000670292B9B11A6D9507FCD5596540BF71
:105920001A6DD00703D420BF1A6DD207FBD59A6D2C
:105930008A420DD04FF0000C06AA02EB8C0252F8FE
:10594000181CE7E79A6D1A6DD607FBD440BFE2E753
:105950000CF1010CBCF1050FEED92146192007B05E
:10596000BDE8F040FFF788B90B4B0C4A10B49A42DF
:1059700088BF4FF0FF330A4C0A4A03F2F471926871
:10598000C3F8F407C3F8FC4707485DF8044BC3F8B5
:10599000F837FFF7A5BF00BF000808200000082067
:1059A0006958002000ED00E065580020F8B5044675
:1059B0003A4E0F46FFF7CCF8B378327803F0010186
:1059C00096F90030DB0F43EA4103234253D096F9A6
:1059D0000110CB0FC2F3801141EA430121427378D9
:1059E0004CD0C3F38011C2F3401545EA4101214276
:1059F00047D0C3F34011C2F3001545EA41012142EB
:105A000042D0C3F30011C2F3C00545EA410121426F
:105A10003DD0C3F3C001C2F3800545EA41012142F4
:105A200015D0C3F38001C2F3400545EA410121428C
:105A30001CD003F0020302F001051D43254018D0DD
:105A400047BB6FF00805FFF795F82846F8BD02251B
:105A50000423E10744BF1A433270A207F3D57278DA
:105A600013437370FFF786F82846F8BD012502231B
:105A7000EFE70123EDE707258023EAE7062540232A
:105A8000E7E705252023E4E704251023E1E70325C4
:105A90000823DEE70248FFF743F800BFB4A7002061
:105AA0006C800020F8B5431E0A3311D800F10804B9
:105AB00010F0070005D0C0F10800C343A34207D38C
:105AC0000444FDF749F9334923460D6815BB0AE044
:105AD000FDF742F92F490B6823B10025FEF7FCFAC8
